{
	"data": {
		"bytecode": {
			"linkReferences": {},
			"object": "608060405234801561000f575f5ffd5b506040516110163803806110168339818101604052810190610031919061054b565b61004283838361004a60201b60201c565b505050610600565b335f5f6101000a81548173ffffffffffffffffffffffffffffffffffffffff021916908373ffffffffffffffffffffffffffffffffffffffff160217905550826006819055505f6003819055505f60045f6101000a81548160ff0219169083151502179055505f5f90505b825181101561013657600560405180604001604052808584815181106100de576100dd6105d3565b5b602002602001015181526020015f815250908060018154018082558091505060019003905f5260205f2090600202015f909190919091505f820151815f015560208201518160010155505080806001019150506100b5565b5080516002819055505f5f90505b81518110156102975760405180606001604052805f151581526020017fffffffffffffffffffffffffffffffffffffffffffffffffffffffffffffffff81526020016001151581525060015f8484815181106101a3576101a26105d3565b5b602002602001015173ffffffffffffffffffffffffffffffffffffffff1673ffffffffffffffffffffffffffffffffffffffff1681526020019081526020015f205f820151815f015f6101000a81548160ff021916908315150217905550602082015181600101556040820151816002015f6101000a81548160ff0219169083151502179055509050508181815181106102405761023f6105d3565b5b602002602001015173ffffffffffffffffffffffffffffffffffffffff167f29bd95a6e95c4d9719ffeaa905fd16f2601a302bbde771ffa35896905fc847b560405160405180910390a28080600101915050610144565b50505050565b5f604051905090565b5f5ffd5b5f5ffd5b5f819050919050565b6102c0816102ae565b81146102ca575f5ffd5b50565b5f815190506102db816102b7565b92915050565b5f5ffd5b5f601f19601f8301169050919050565b7f4e487b71000000000000000000000000000000000000000000000000000000005f52604160045260245ffd5b61032b826102e5565b810181811067ffffffffffffffff8211171561034a576103496102f5565b5b80604052505050565b5f61035c61029d565b90506103688282610322565b919050565b5f67ffffffffffffffff821115610387576103866102f5565b5b602082029050602081019050919050565b5f5ffd5b5f6103ae6103a98461036d565b610353565b905080838252602082019050602084028301858111156103d1576103d0610398565b5b835b818110156103fa57806103e688826102cd565b8452602084019350506020810190506103d3565b5050509392505050565b5f82601f830112610418576104176102e1565b5b815161042884826020860161039c565b91505092915050565b5f67ffffffffffffffff82111561044b5761044a6102f5565b5b602082029050602081019050919050565b5f73ffffffffffffffffffffffffffffffffffffffff82169050919050565b5f6104858261045c565b9050919050565b6104958161047b565b811461049f575f5ffd5b50565b5f815190506104b08161048c565b92915050565b5f6104c86104c384610431565b610353565b905080838252602082019050602084028301858111156104eb576104ea610398565b5b835b81811015610514578061050088826104a2565b8452602084019350506020810190506104ed565b5050509392505050565b5f82601f830112610532576105316102e1565b5b81516105428482602086016104b6565b91505092915050565b5f5f5f60608486031215610562576105616102a6565b5b5f61056f868287016102cd565b935050602084015167ffffffffffffffff8111156105905761058f6102aa565b5b61059c86828701610404565b925050604084015167ffffffffffffffff8111156105bd576105bc6102aa565b5b6105c98682870161051e565b9150509250925092565b7f4e487b71000000000000000000000000000000000000000000000000000000005f52603260045260245ffd5b610a098061060d5f395ff3fe608060405234801561000f575f5ffd5b506004361061009c575f3560e01c8063bf63a57711610064578063bf63a57714610147578063dd60c89814610165578063e2ba53f014610183578063f0232d0a146101a1578063f851a440146101bf5761009c565b80630121b93f146100a057806309e69ede146100bc578063409e2205146100ee5780635c53b6321461011f5780639fde4ef814610129575b5f5ffd5b6100ba60048036038101906100b591906105d7565b6101dd565b005b6100d660048036038101906100d1919061065c565b61039b565b6040516100e5939291906106b9565b60405180910390f35b610108600480360381019061010391906105d7565b6103d9565b604051610116929190610715565b60405180910390f35b610127610408565b005b6101316104a0565b60405161013e919061073c565b60405180910390f35b61014f61051e565b60405161015c9190610755565b60405180910390f35b61016d610524565b60405161017a919061073c565b60405180910390f35b61018b61052a565b6040516101989190610755565b60405180910390f35b6101a961055a565b6040516101b6919061073c565b60405180910390f35b6101c7610560565b6040516101d4919061077d565b60405180910390f35b5f60015f3373ffffffffffffffffffffffffffffffffffffffff1673ffffffffffffffffffffffffffffffffffffffff1681526020019081526020015f20905060045f9054906101000a900460ff161561026c576040517f08c379a0000000000000000000000000000000000000000000000000000000008152600401610263906107f0565b60405180910390fd5b806002015f9054906101000a900460ff166102bc576040517f08c379a00000000000000000000000000000000000000000000000000000000081526004016102b390610858565b60405180910390fd5b805f015f9054906101000a900460ff161561030c576040517f08c379a0000000000000000000000000000000000000000000000000000000008152600401610303906108c0565b60405180910390fd5b6001815f015f6101000a81548160ff021916908315150217905550818160010181905550600160058381548110610346576103456108de565b5b905f5260205f2090600202016001015f8282546103639190610938565b92505081905550600160035f82825461037c9190610938565b925050819055506003546002540361039757610396610584565b5b5050565b6001602052805f5260405f205f91509050805f015f9054906101000a900460ff1690806001015490806002015f9054906101000a900460ff16905083565b600581815481106103e8575f80fd5b905f5260205f2090600202015f91509050805f0154908060010154905082565b5f5f9054906101000a900473ffffffffffffffffffffffffffffffffffffffff1673ffffffffffffffffffffffffffffffffffffffff163373ffffffffffffffffffffffffffffffffffffffff1614610496576040517f08c379a000000000000000000000000000000000000000000000000000000000815260040161048d906109b5565b60405180910390fd5b61049e610584565b565b5f5f5f90505f5f90505b6005805490508110156105195781600582815481106104cc576104cb6108de565b5b905f5260205f20906002020160010154111561050c57600581815481106104f6576104f56108de565b5b905f5260205f2090600202016001015491508092505b80806001019150506104aa565b505090565b60065481565b60025481565b5f60056105356104a0565b81548110610546576105456108de565b5b905f5260205f2090600202015f0154905090565b60035481565b5f5f9054906101000a900473ffffffffffffffffffffffffffffffffffffffff1681565b600160045f6101000a81548160ff021916908315150217905550565b5f5ffd5b5f819050919050565b6105b6816105a4565b81146105c0575f5ffd5b50565b5f813590506105d1816105ad565b92915050565b5f602082840312156105ec576105eb6105a0565b5b5f6105f9848285016105c3565b91505092915050565b5f73ffffffffffffffffffffffffffffffffffffffff82169050919050565b5f61062b82610602565b9050919050565b61063b81610621565b8114610645575f5ffd5b50565b5f8135905061065681610632565b92915050565b5f60208284031215610671576106706105a0565b5b5f61067e84828501610648565b91505092915050565b5f8115159050919050565b61069b81610687565b82525050565b5f819050919050565b6106b3816106a1565b82525050565b5f6060820190506106cc5f830186610692565b6106d960208301856106aa565b6106e66040830184610692565b949350505050565b5f819050919050565b610700816106ee565b82525050565b61070f816105a4565b82525050565b5f6040820190506107285f8301856106f7565b6107356020830184610706565b9392505050565b5f60208201905061074f5f830184610706565b92915050565b5f6020820190506107685f8301846106f7565b92915050565b61077781610621565b82525050565b5f6020820190506107905f83018461076e565b92915050565b5f82825260208201905092915050565b7f566f74696e672068617320616c726561647920656e64656400000000000000005f82015250565b5f6107da601883610796565b91506107e5826107a6565b602082019050919050565b5f6020820190508181035f830152610807816107ce565b9050919050565b7f486173206e6f20726967687420746f20766f74650000000000000000000000005f82015250565b5f610842601483610796565b915061084d8261080e565b602082019050919050565b5f6020820190508181035f83015261086f81610836565b9050919050565b7f416c726561647920766f7465642e0000000000000000000000000000000000005f82015250565b5f6108aa600e83610796565b91506108b582610876565b602082019050919050565b5f6020820190508181035f8301526108d78161089e565b9050919050565b7f4e487b71000000000000000000000000000000000000000000000000000000005f52603260045260245ffd5b7f4e487b71000000000000000000000000000000000000000000000000000000005f52601160045260245ffd5b5f610942826105a4565b915061094d836105a4565b92508282019050808211156109655761096461090b565b5b92915050565b7f4f6e6c792061646d696e2063616e20636c6f73652074686520766f74650000005f82015250565b5f61099f601d83610796565b91506109aa8261096b565b602082019050919050565b5f6020820190508181035f8301526109cc81610993565b905091905056fea26469706673582212205f8c8a1d1ebcf7e6fad789111995dd82f55f518a403b86e57174a18e8c2a4a4464736f6c634300081e0033",
			"opcodes": "PUSH1 0x80 PUSH1 0x40 MSTORE CALLVALUE DUP1 ISZERO PUSH2 0xF JUMPI PUSH0 PUSH0 REVERT JUMPDEST POP PUSH1 0x40 MLOAD PUSH2 0x1016 CODESIZE SUB DUP1 PUSH2 0x1016 DUP4 CODECOPY DUP2 DUP2 ADD PUSH1 0x40 MSTORE DUP2 ADD SWAP1 PUSH2 0x31 SWAP2 SWAP1 PUSH2 0x54B JUMP JUMPDEST PUSH2 0x42 DUP4 DUP4 DUP4 PUSH2 0x4A PUSH1 0x20 SHL PUSH1 0x20 SHR JUMP JUMPDEST POP POP POP PUSH2 0x600 JUMP JUMPDEST CALLER PUSH0 PUSH0 PUSH2 0x100 EXP DUP2 SLOAD DUP2 PUSH20 0xFFFFFFFFFFFFFFFFFFFFFFFFFFFFFFFFFFFFFFFF MUL NOT AND SWAP1 DUP4 PUSH20 0xFFFFFFFFFFFFFFFFFFFFFFFFFFFFFFFFFFFFFFFF AND MUL OR SWAP1 SSTORE POP DUP3 PUSH1 0x6 DUP2 SWAP1 SSTORE POP PUSH0 PUSH1 0x3 DUP2 SWAP1 SSTORE POP PUSH0 PUSH1 0x4 PUSH0 PUSH2 0x100 EXP DUP2 SLOAD DUP2 PUSH1 0xFF MUL NOT AND SWAP1 DUP4 ISZERO ISZERO MUL OR SWAP1 SSTORE POP PUSH0 PUSH0 SWAP1 POP JUMPDEST DUP3 MLOAD DUP2 LT ISZERO PUSH2 0x136 JUMPI PUSH1 0x5 PUSH1 0x40 MLOAD DUP1 PUSH1 0x40 ADD PUSH1 0x40 MSTORE DUP1 DUP6 DUP5 DUP2 MLOAD DUP2 LT PUSH2 0xDE JUMPI PUSH2 0xDD PUSH2 0x5D3 JUMP JUMPDEST JUMPDEST PUSH1 0x20 MUL PUSH1 0x20 ADD ADD MLOAD DUP2 MSTORE PUSH1 0x20 ADD PUSH0 DUP2 MSTORE POP SWAP1 DUP1 PUSH1 0x1 DUP2 SLOAD ADD DUP1 DUP3 SSTORE DUP1 SWAP2 POP POP PUSH1 0x1 SWAP1 SUB SWAP1 PUSH0 MSTORE PUSH1 0x20 PUSH0 KECCAK256 SWAP1 PUSH1 0x2 MUL ADD PUSH0 SWAP1 SWAP2 SWAP1 SWAP2 SWAP1 SWAP2 POP PUSH0 DUP3 ADD MLOAD DUP2 PUSH0 ADD SSTORE PUSH1 0x20 DUP3 ADD MLOAD DUP2 PUSH1 0x1 ADD SSTORE POP POP DUP1 DUP1 PUSH1 0x1 ADD SWAP2 POP POP PUSH2 0xB5 JUMP JUMPDEST POP DUP1 MLOAD PUSH1 0x2 DUP2 SWAP1 SSTORE POP PUSH0 PUSH0 SWAP1 POP JUMPDEST DUP2 MLOAD DUP2 LT ISZERO PUSH2 0x297 JUMPI PUSH1 0x40 MLOAD DUP1 PUSH1 0x60 ADD PUSH1 0x40 MSTORE DUP1 PUSH0 ISZERO ISZERO DUP2 MSTORE PUSH1 0x20 ADD PUSH32 0xFFFFFFFFFFFFFFFFFFFFFFFFFFFFFFFFFFFFFFFFFFFFFFFFFFFFFFFFFFFFFFFF DUP2 MSTORE PUSH1 0x20 ADD PUSH1 0x1 ISZERO ISZERO DUP2 MSTORE POP PUSH1 0x1 PUSH0 DUP5 DUP5 DUP2 MLOAD DUP2 LT PUSH2 0x1A3 JUMPI PUSH2 0x1A2 PUSH2 0x5D3 JUMP JUMPDEST JUMPDEST PUSH1 0x20 MUL PUSH1 0x20 ADD ADD MLOAD PUSH20 0xFFFFFFFFFFFFFFFFFFFFFFFFFFFFFFFFFFFFFFFF AND PUSH20 0xFFFFFFFFFFFFFFFFFFFFFFFFFFFFFFFFFFFFFFFF AND DUP2 MSTORE PUSH1 0x20 ADD SWAP1 DUP2 MSTORE PUSH1 0x20 ADD PUSH0 KECCAK256 PUSH0 DUP3 ADD MLOAD DUP2 PUSH0 ADD PUSH0 PUSH2 0x100 EXP DUP2 SLOAD DUP2 PUSH1 0xFF MUL NOT AND SWAP1 DUP4 ISZERO ISZERO MUL OR SWAP1 SSTORE POP PUSH1 0x20 DUP3 ADD MLOAD DUP2 PUSH1 0x1 ADD SSTORE PUSH1 0x40 DUP3 ADD MLOAD DUP2 PUSH1 0x2 ADD PUSH0 PUSH2 0x100 EXP DUP2 SLOAD DUP2 PUSH1 0xFF MUL NOT AND SWAP1 DUP4 ISZERO ISZERO MUL OR SWAP1 SSTORE POP SWAP1 POP POP DUP2 DUP2 DUP2 MLOAD DUP2 LT PUSH2 0x240 JUMPI PUSH2 0x23F PUSH2 0x5D3 JUMP JUMPDEST JUMPDEST PUSH1 0x20 MUL PUSH1 0x20 ADD ADD MLOAD PUSH20 0xFFFFFFFFFFFFFFFFFFFFFFFFFFFFFFFFFFFFFFFF AND PUSH32 0x29BD95A6E95C4D9719FFEAA905FD16F2601A302BBDE771FFA35896905FC847B5 PUSH1 0x40 MLOAD PUSH1 0x40 MLOAD DUP1 SWAP2 SUB SWAP1 LOG2 DUP1 DUP1 PUSH1 0x1 ADD SWAP2 POP POP PUSH2 0x144 JUMP JUMPDEST POP POP POP POP JUMP JUMPDEST PUSH0 PUSH1 0x40 MLOAD SWAP1 POP SWAP1 JUMP JUMPDEST PUSH0 PUSH0 REVERT JUMPDEST PUSH0 PUSH0 REVERT JUMPDEST PUSH0 DUP2 SWAP1 POP SWAP2 SWAP1 POP JUMP JUMPDEST PUSH2 0x2C0 DUP2 PUSH2 0x2AE JUMP JUMPDEST DUP2 EQ PUSH2 0x2CA JUMPI PUSH0 PUSH0 REVERT JUMPDEST POP JUMP JUMPDEST PUSH0 DUP2 MLOAD SWAP1 POP PUSH2 0x2DB DUP2 PUSH2 0x2B7 JUMP JUMPDEST SWAP3 SWAP2 POP POP JUMP JUMPDEST PUSH0 PUSH0 REVERT JUMPDEST PUSH0 PUSH1 0x1F NOT PUSH1 0x1F DUP4 ADD AND SWAP1 POP SWAP2 SWAP1 POP JUMP JUMPDEST PUSH32 0x4E487B7100000000000000000000000000000000000000000000000000000000 PUSH0 MSTORE PUSH1 0x41 PUSH1 0x4 MSTORE PUSH1 0x24 PUSH0 REVERT JUMPDEST PUSH2 0x32B DUP3 PUSH2 0x2E5 JUMP JUMPDEST DUP2 ADD DUP2 DUP2 LT PUSH8 0xFFFFFFFFFFFFFFFF DUP3 GT OR ISZERO PUSH2 0x34A JUMPI PUSH2 0x349 PUSH2 0x2F5 JUMP JUMPDEST JUMPDEST DUP1 PUSH1 0x40 MSTORE POP POP POP JUMP JUMPDEST PUSH0 PUSH2 0x35C PUSH2 0x29D JUMP JUMPDEST SWAP1 POP PUSH2 0x368 DUP3 DUP3 PUSH2 0x322 JUMP JUMPDEST SWAP2 SWAP1 POP JUMP JUMPDEST PUSH0 PUSH8 0xFFFFFFFFFFFFFFFF DUP3 GT ISZERO PUSH2 0x387 JUMPI PUSH2 0x386 PUSH2 0x2F5 JUMP JUMPDEST JUMPDEST PUSH1 0x20 DUP3 MUL SWAP1 POP PUSH1 0x20 DUP2 ADD SWAP1 POP SWAP2 SWAP1 POP JUMP JUMPDEST PUSH0 PUSH0 REVERT JUMPDEST PUSH0 PUSH2 0x3AE PUSH2 0x3A9 DUP5 PUSH2 0x36D JUMP JUMPDEST PUSH2 0x353 JUMP JUMPDEST SWAP1 POP DUP1 DUP4 DUP3 MSTORE PUSH1 0x20 DUP3 ADD SWAP1 POP PUSH1 0x20 DUP5 MUL DUP4 ADD DUP6 DUP2 GT ISZERO PUSH2 0x3D1 JUMPI PUSH2 0x3D0 PUSH2 0x398 JUMP JUMPDEST JUMPDEST DUP4 JUMPDEST DUP2 DUP2 LT ISZERO PUSH2 0x3FA JUMPI DUP1 PUSH2 0x3E6 DUP9 DUP3 PUSH2 0x2CD JUMP JUMPDEST DUP5 MSTORE PUSH1 0x20 DUP5 ADD SWAP4 POP POP PUSH1 0x20 DUP2 ADD SWAP1 POP PUSH2 0x3D3 JUMP JUMPDEST POP POP POP SWAP4 SWAP3 POP POP POP JUMP JUMPDEST PUSH0 DUP3 PUSH1 0x1F DUP4 ADD SLT PUSH2 0x418 JUMPI PUSH2 0x417 PUSH2 0x2E1 JUMP JUMPDEST JUMPDEST DUP2 MLOAD PUSH2 0x428 DUP5 DUP3 PUSH1 0x20 DUP7 ADD PUSH2 0x39C JUMP JUMPDEST SWAP2 POP POP SWAP3 SWAP2 POP POP JUMP JUMPDEST PUSH0 PUSH8 0xFFFFFFFFFFFFFFFF DUP3 GT ISZERO PUSH2 0x44B JUMPI PUSH2 0x44A PUSH2 0x2F5 JUMP JUMPDEST JUMPDEST PUSH1 0x20 DUP3 MUL SWAP1 POP PUSH1 0x20 DUP2 ADD SWAP1 POP SWAP2 SWAP1 POP JUMP JUMPDEST PUSH0 PUSH20 0xFFFFFFFFFFFFFFFFFFFFFFFFFFFFFFFFFFFFFFFF DUP3 AND SWAP1 POP SWAP2 SWAP1 POP JUMP JUMPDEST PUSH0 PUSH2 0x485 DUP3 PUSH2 0x45C JUMP JUMPDEST SWAP1 POP SWAP2 SWAP1 POP JUMP JUMPDEST PUSH2 0x495 DUP2 PUSH2 0x47B JUMP JUMPDEST DUP2 EQ PUSH2 0x49F JUMPI PUSH0 PUSH0 REVERT JUMPDEST POP JUMP JUMPDEST PUSH0 DUP2 MLOAD SWAP1 POP PUSH2 0x4B0 DUP2 PUSH2 0x48C JUMP JUMPDEST SWAP3 SWAP2 POP POP JUMP JUMPDEST PUSH0 PUSH2 0x4C8 PUSH2 0x4C3 DUP5 PUSH2 0x431 JUMP JUMPDEST PUSH2 0x353 JUMP JUMPDEST SWAP1 POP DUP1 DUP4 DUP3 MSTORE PUSH1 0x20 DUP3 ADD SWAP1 POP PUSH1 0x20 DUP5 MUL DUP4 ADD DUP6 DUP2 GT ISZERO PUSH2 0x4EB JUMPI PUSH2 0x4EA PUSH2 0x398 JUMP JUMPDEST JUMPDEST DUP4 JUMPDEST DUP2 DUP2 LT ISZERO PUSH2 0x514 JUMPI DUP1 PUSH2 0x500 DUP9 DUP3 PUSH2 0x4A2 JUMP JUMPDEST DUP5 MSTORE PUSH1 0x20 DUP5 ADD SWAP4 POP POP PUSH1 0x20 DUP2 ADD SWAP1 POP PUSH2 0x4ED JUMP JUMPDEST POP POP POP SWAP4 SWAP3 POP POP POP JUMP JUMPDEST PUSH0 DUP3 PUSH1 0x1F DUP4 ADD SLT PUSH2 0x532 JUMPI PUSH2 0x531 PUSH2 0x2E1 JUMP JUMPDEST JUMPDEST DUP2 MLOAD PUSH2 0x542 DUP5 DUP3 PUSH1 0x20 DUP7 ADD PUSH2 0x4B6 JUMP JUMPDEST SWAP2 POP POP SWAP3 SWAP2 POP POP JUMP JUMPDEST PUSH0 PUSH0 PUSH0 PUSH1 0x60 DUP5 DUP7 SUB SLT ISZERO PUSH2 0x562 JUMPI PUSH2 0x561 PUSH2 0x2A6 JUMP JUMPDEST JUMPDEST PUSH0 PUSH2 0x56F DUP7 DUP3 DUP8 ADD PUSH2 0x2CD JUMP JUMPDEST SWAP4 POP POP PUSH1 0x20 DUP5 ADD MLOAD PUSH8 0xFFFFFFFFFFFFFFFF DUP2 GT ISZERO PUSH2 0x590 JUMPI PUSH2 0x58F PUSH2 0x2AA JUMP JUMPDEST JUMPDEST PUSH2 0x59C DUP7 DUP3 DUP8 ADD PUSH2 0x404 JUMP JUMPDEST SWAP3 POP POP PUSH1 0x40 DUP5 ADD MLOAD PUSH8 0xFFFFFFFFFFFFFFFF DUP2 GT ISZERO PUSH2 0x5BD JUMPI PUSH2 0x5BC PUSH2 0x2AA JUMP JUMPDEST JUMPDEST PUSH2 0x5C9 DUP7 DUP3 DUP8 ADD PUSH2 0x51E JUMP JUMPDEST SWAP2 POP POP SWAP3 POP SWAP3 POP SWAP3 JUMP JUMPDEST PUSH32 0x4E487B7100000000000000000000000000000000000000000000000000000000 PUSH0 MSTORE PUSH1 0x32 PUSH1 0x4 MSTORE PUSH1 0x24 PUSH0 REVERT JUMPDEST PUSH2 0xA09 DUP1 PUSH2 0x60D PUSH0 CODECOPY PUSH0 RETURN INVALID PUSH1 0x80 PUSH1 0x40 MSTORE CALLVALUE DUP1 ISZERO PUSH2 0xF JUMPI PUSH0 PUSH0 REVERT JUMPDEST POP PUSH1 0x4 CALLDATASIZE LT PUSH2 0x9C JUMPI PUSH0 CALLDATALOAD PUSH1 0xE0 SHR DUP1 PUSH4 0xBF63A577 GT PUSH2 0x64 JUMPI DUP1 PUSH4 0xBF63A577 EQ PUSH2 0x147 JUMPI DUP1 PUSH4 0xDD60C898 EQ PUSH2 0x165 JUMPI DUP1 PUSH4 0xE2BA53F0 EQ PUSH2 0x183 JUMPI DUP1 PUSH4 0xF0232D0A EQ PUSH2 0x1A1 JUMPI DUP1 PUSH4 0xF851A440 EQ PUSH2 0x1BF JUMPI PUSH2 0x9C JUMP JUMPDEST DUP1 PUSH4 0x121B93F EQ PUSH2 0xA0 JUMPI DUP1 PUSH4 0x9E69EDE EQ PUSH2 0xBC JUMPI DUP1 PUSH4 0x409E2205 EQ PUSH2 0xEE JUMPI DUP1 PUSH4 0x5C53B632 EQ PUSH2 0x11F JUMPI DUP1 PUSH4 0x9FDE4EF8 EQ PUSH2 0x129 JUMPI JUMPDEST PUSH0 PUSH0 REVERT JUMPDEST PUSH2 0xBA PUSH1 0x4 DUP1 CALLDATASIZE SUB DUP2 ADD SWAP1 PUSH2 0xB5 SWAP2 SWAP1 PUSH2 0x5D7 JUMP JUMPDEST PUSH2 0x1DD JUMP JUMPDEST STOP JUMPDEST PUSH2 0xD6 PUSH1 0x4 DUP1 CALLDATASIZE SUB DUP2 ADD SWAP1 PUSH2 0xD1 SWAP2 SWAP1 PUSH2 0x65C JUMP JUMPDEST PUSH2 0x39B JUMP JUMPDEST PUSH1 0x40 MLOAD PUSH2 0xE5 SWAP4 SWAP3 SWAP2 SWAP1 PUSH2 0x6B9 JUMP JUMPDEST PUSH1 0x40 MLOAD DUP1 SWAP2 SUB SWAP1 RETURN JUMPDEST PUSH2 0x108 PUSH1 0x4 DUP1 CALLDATASIZE SUB DUP2 ADD SWAP1 PUSH2 0x103 SWAP2 SWAP1 PUSH2 0x5D7 JUMP JUMPDEST PUSH2 0x3D9 JUMP JUMPDEST PUSH1 0x40 MLOAD PUSH2 0x116 SWAP3 SWAP2 SWAP1 PUSH2 0x715 JUMP JUMPDEST PUSH1 0x40 MLOAD DUP1 SWAP2 SUB SWAP1 RETURN JUMPDEST PUSH2 0x127 PUSH2 0x408 JUMP JUMPDEST STOP JUMPDEST PUSH2 0x131 PUSH2 0x4A0 JUMP JUMPDEST PUSH1 0x40 MLOAD PUSH2 0x13E SWAP2 SWAP1 PUSH2 0x73C JUMP JUMPDEST PUSH1 0x40 MLOAD DUP1 SWAP2 SUB SWAP1 RETURN JUMPDEST PUSH2 0x14F PUSH2 0x51E JUMP JUMPDEST PUSH1 0x40 MLOAD PUSH2 0x15C SWAP2 SWAP1 PUSH2 0x755 JUMP JUMPDEST PUSH1 0x40 MLOAD DUP1 SWAP2 SUB SWAP1 RETURN JUMPDEST PUSH2 0x16D PUSH2 0x524 JUMP JUMPDEST PUSH1 0x40 MLOAD PUSH2 0x17A SWAP2 SWAP1 PUSH2 0x73C JUMP JUMPDEST PUSH1 0x40 MLOAD DUP1 SWAP2 SUB SWAP1 RETURN JUMPDEST PUSH2 0x18B PUSH2 0x52A JUMP JUMPDEST PUSH1 0x40 MLOAD PUSH2 0x198 SWAP2 SWAP1 PUSH2 0x755 JUMP JUMPDEST PUSH1 0x40 MLOAD DUP1 SWAP2 SUB SWAP1 RETURN JUMPDEST PUSH2 0x1A9 PUSH2 0x55A JUMP JUMPDEST PUSH1 0x40 MLOAD PUSH2 0x1B6 SWAP2 SWAP1 PUSH2 0x73C JUMP JUMPDEST PUSH1 0x40 MLOAD DUP1 SWAP2 SUB SWAP1 RETURN JUMPDEST PUSH2 0x1C7 PUSH2 0x560 JUMP JUMPDEST PUSH1 0x40 MLOAD PUSH2 0x1D4 SWAP2 SWAP1 PUSH2 0x77D JUMP JUMPDEST PUSH1 0x40 MLOAD DUP1 SWAP2 SUB SWAP1 RETURN JUMPDEST PUSH0 PUSH1 0x1 PUSH0 CALLER PUSH20 0xFFFFFFFFFFFFFFFFFFFFFFFFFFFFFFFFFFFFFFFF AND PUSH20 0xFFFFFFFFFFFFFFFFFFFFFFFFFFFFFFFFFFFFFFFF AND DUP2 MSTORE PUSH1 0x20 ADD SWAP1 DUP2 MSTORE PUSH1 0x20 ADD PUSH0 KECCAK256 SWAP1 POP PUSH1 0x4 PUSH0 SWAP1 SLOAD SWAP1 PUSH2 0x100 EXP SWAP1 DIV PUSH1 0xFF AND ISZERO PUSH2 0x26C JUMPI PUSH1 0x40 MLOAD PUSH32 0x8C379A000000000000000000000000000000000000000000000000000000000 DUP2 MSTORE PUSH1 0x4 ADD PUSH2 0x263 SWAP1 PUSH2 0x7F0 JUMP JUMPDEST PUSH1 0x40 MLOAD DUP1 SWAP2 SUB SWAP1 REVERT JUMPDEST DUP1 PUSH1 0x2 ADD PUSH0 SWAP1 SLOAD SWAP1 PUSH2 0x100 EXP SWAP1 DIV PUSH1 0xFF AND PUSH2 0x2BC JUMPI PUSH1 0x40 MLOAD PUSH32 0x8C379A000000000000000000000000000000000000000000000000000000000 DUP2 MSTORE PUSH1 0x4 ADD PUSH2 0x2B3 SWAP1 PUSH2 0x858 JUMP JUMPDEST PUSH1 0x40 MLOAD DUP1 SWAP2 SUB SWAP1 REVERT JUMPDEST DUP1 PUSH0 ADD PUSH0 SWAP1 SLOAD SWAP1 PUSH2 0x100 EXP SWAP1 DIV PUSH1 0xFF AND ISZERO PUSH2 0x30C JUMPI PUSH1 0x40 MLOAD PUSH32 0x8C379A000000000000000000000000000000000000000000000000000000000 DUP2 MSTORE PUSH1 0x4 ADD PUSH2 0x303 SWAP1 PUSH2 0x8C0 JUMP JUMPDEST PUSH1 0x40 MLOAD DUP1 SWAP2 SUB SWAP1 REVERT JUMPDEST PUSH1 0x1 DUP2 PUSH0 ADD PUSH0 PUSH2 0x100 EXP DUP2 SLOAD DUP2 PUSH1 0xFF MUL NOT AND SWAP1 DUP4 ISZERO ISZERO MUL OR SWAP1 SSTORE POP DUP2 DUP2 PUSH1 0x1 ADD DUP2 SWAP1 SSTORE POP PUSH1 0x1 PUSH1 0x5 DUP4 DUP2 SLOAD DUP2 LT PUSH2 0x346 JUMPI PUSH2 0x345 PUSH2 0x8DE JUMP JUMPDEST JUMPDEST SWAP1 PUSH0 MSTORE PUSH1 0x20 PUSH0 KECCAK256 SWAP1 PUSH1 0x2 MUL ADD PUSH1 0x1 ADD PUSH0 DUP3 DUP3 SLOAD PUSH2 0x363 SWAP2 SWAP1 PUSH2 0x938 JUMP JUMPDEST SWAP3 POP POP DUP2 SWAP1 SSTORE POP PUSH1 0x1 PUSH1 0x3 PUSH0 DUP3 DUP3 SLOAD PUSH2 0x37C SWAP2 SWAP1 PUSH2 0x938 JUMP JUMPDEST SWAP3 POP POP DUP2 SWAP1 SSTORE POP PUSH1 0x3 SLOAD PUSH1 0x2 SLOAD SUB PUSH2 0x397 JUMPI PUSH2 0x396 PUSH2 0x584 JUMP JUMPDEST JUMPDEST POP POP JUMP JUMPDEST PUSH1 0x1 PUSH1 0x20 MSTORE DUP1 PUSH0 MSTORE PUSH1 0x40 PUSH0 KECCAK256 PUSH0 SWAP2 POP SWAP1 POP DUP1 PUSH0 ADD PUSH0 SWAP1 SLOAD SWAP1 PUSH2 0x100 EXP SWAP1 DIV PUSH1 0xFF AND SWAP1 DUP1 PUSH1 0x1 ADD SLOAD SWAP1 DUP1 PUSH1 0x2 ADD PUSH0 SWAP1 SLOAD SWAP1 PUSH2 0x100 EXP SWAP1 DIV PUSH1 0xFF AND SWAP1 POP DUP4 JUMP JUMPDEST PUSH1 0x5 DUP2 DUP2 SLOAD DUP2 LT PUSH2 0x3E8 JUMPI PUSH0 DUP1 REVERT JUMPDEST SWAP1 PUSH0 MSTORE PUSH1 0x20 PUSH0 KECCAK256 SWAP1 PUSH1 0x2 MUL ADD PUSH0 SWAP2 POP SWAP1 POP DUP1 PUSH0 ADD SLOAD SWAP1 DUP1 PUSH1 0x1 ADD SLOAD SWAP1 POP DUP3 JUMP JUMPDEST PUSH0 PUSH0 SWAP1 SLOAD SWAP1 PUSH2 0x100 EXP SWAP1 DIV PUSH20 0xFFFFFFFFFFFFFFFFFFFFFFFFFFFFFFFFFFFFFFFF AND PUSH20 0xFFFFFFFFFFFFFFFFFFFFFFFFFFFFFFFFFFFFFFFF AND CALLER PUSH20 0xFFFFFFFFFFFFFFFFFFFFFFFFFFFFFFFFFFFFFFFF AND EQ PUSH2 0x496 JUMPI PUSH1 0x40 MLOAD PUSH32 0x8C379A000000000000000000000000000000000000000000000000000000000 DUP2 MSTORE PUSH1 0x4 ADD PUSH2 0x48D SWAP1 PUSH2 0x9B5 JUMP JUMPDEST PUSH1 0x40 MLOAD DUP1 SWAP2 SUB SWAP1 REVERT JUMPDEST PUSH2 0x49E PUSH2 0x584 JUMP JUMPDEST JUMP JUMPDEST PUSH0 PUSH0 PUSH0 SWAP1 POP PUSH0 PUSH0 SWAP1 POP JUMPDEST PUSH1 0x5 DUP1 SLOAD SWAP1 POP DUP2 LT ISZERO PUSH2 0x519 JUMPI DUP2 PUSH1 0x5 DUP3 DUP2 SLOAD DUP2 LT PUSH2 0x4CC JUMPI PUSH2 0x4CB PUSH2 0x8DE JUMP JUMPDEST JUMPDEST SWAP1 PUSH0 MSTORE PUSH1 0x20 PUSH0 KECCAK256 SWAP1 PUSH1 0x2 MUL ADD PUSH1 0x1 ADD SLOAD GT ISZERO PUSH2 0x50C JUMPI PUSH1 0x5 DUP2 DUP2 SLOAD DUP2 LT PUSH2 0x4F6 JUMPI PUSH2 0x4F5 PUSH2 0x8DE JUMP JUMPDEST JUMPDEST SWAP1 PUSH0 MSTORE PUSH1 0x20 PUSH0 KECCAK256 SWAP1 PUSH1 0x2 MUL ADD PUSH1 0x1 ADD SLOAD SWAP2 POP DUP1 SWAP3 POP JUMPDEST DUP1 DUP1 PUSH1 0x1 ADD SWAP2 POP POP PUSH2 0x4AA JUMP JUMPDEST POP POP SWAP1 JUMP JUMPDEST PUSH1 0x6 SLOAD DUP2 JUMP JUMPDEST PUSH1 0x2 SLOAD DUP2 JUMP JUMPDEST PUSH0 PUSH1 0x5 PUSH2 0x535 PUSH2 0x4A0 JUMP JUMPDEST DUP2 SLOAD DUP2 LT PUSH2 0x546 JUMPI PUSH2 0x545 PUSH2 0x8DE JUMP JUMPDEST JUMPDEST SWAP1 PUSH0 MSTORE PUSH1 0x20 PUSH0 KECCAK256 SWAP1 PUSH1 0x2 MUL ADD PUSH0 ADD SLOAD SWAP1 POP SWAP1 JUMP JUMPDEST PUSH1 0x3 SLOAD DUP2 JUMP JUMPDEST PUSH0 PUSH0 SWAP1 SLOAD SWAP1 PUSH2 0x100 EXP SWAP1 DIV PUSH20 0xFFFFFFFFFFFFFFFFFFFFFFFFFFFFFFFFFFFFFFFF AND DUP2 JUMP JUMPDEST PUSH1 0x1 PUSH1 0x4 PUSH0 PUSH2 0x100 EXP DUP2 SLOAD DUP2 PUSH1 0xFF MUL NOT AND SWAP1 DUP4 ISZERO ISZERO MUL OR SWAP1 SSTORE POP JUMP JUMPDEST PUSH0 PUSH0 REVERT JUMPDEST PUSH0 DUP2 SWAP1 POP SWAP2 SWAP1 POP JUMP JUMPDEST PUSH2 0x5B6 DUP2 PUSH2 0x5A4 JUMP JUMPDEST DUP2 EQ PUSH2 0x5C0 JUMPI PUSH0 PUSH0 REVERT JUMPDEST POP JUMP JUMPDEST PUSH0 DUP2 CALLDATALOAD SWAP1 POP PUSH2 0x5D1 DUP2 PUSH2 0x5AD JUMP JUMPDEST SWAP3 SWAP2 POP POP JUMP JUMPDEST PUSH0 PUSH1 0x20 DUP3 DUP5 SUB SLT ISZERO PUSH2 0x5EC JUMPI PUSH2 0x5EB PUSH2 0x5A0 JUMP JUMPDEST JUMPDEST PUSH0 PUSH2 0x5F9 DUP5 DUP3 DUP6 ADD PUSH2 0x5C3 JUMP JUMPDEST SWAP2 POP POP SWAP3 SWAP2 POP POP JUMP JUMPDEST PUSH0 PUSH20 0xFFFFFFFFFFFFFFFFFFFFFFFFFFFFFFFFFFFFFFFF DUP3 AND SWAP1 POP SWAP2 SWAP1 POP JUMP JUMPDEST PUSH0 PUSH2 0x62B DUP3 PUSH2 0x602 JUMP JUMPDEST SWAP1 POP SWAP2 SWAP1 POP JUMP JUMPDEST PUSH2 0x63B DUP2 PUSH2 0x621 JUMP JUMPDEST DUP2 EQ PUSH2 0x645 JUMPI PUSH0 PUSH0 REVERT JUMPDEST POP JUMP JUMPDEST PUSH0 DUP2 CALLDATALOAD SWAP1 POP PUSH2 0x656 DUP2 PUSH2 0x632 JUMP JUMPDEST SWAP3 SWAP2 POP POP JUMP JUMPDEST PUSH0 PUSH1 0x20 DUP3 DUP5 SUB SLT ISZERO PUSH2 0x671 JUMPI PUSH2 0x670 PUSH2 0x5A0 JUMP JUMPDEST JUMPDEST PUSH0 PUSH2 0x67E DUP5 DUP3 DUP6 ADD PUSH2 0x648 JUMP JUMPDEST SWAP2 POP POP SWAP3 SWAP2 POP POP JUMP JUMPDEST PUSH0 DUP2 ISZERO ISZERO SWAP1 POP SWAP2 SWAP1 POP JUMP JUMPDEST PUSH2 0x69B DUP2 PUSH2 0x687 JUMP JUMPDEST DUP3 MSTORE POP POP JUMP JUMPDEST PUSH0 DUP2 SWAP1 POP SWAP2 SWAP1 POP JUMP JUMPDEST PUSH2 0x6B3 DUP2 PUSH2 0x6A1 JUMP JUMPDEST DUP3 MSTORE POP POP JUMP JUMPDEST PUSH0 PUSH1 0x60 DUP3 ADD SWAP1 POP PUSH2 0x6CC PUSH0 DUP4 ADD DUP7 PUSH2 0x692 JUMP JUMPDEST PUSH2 0x6D9 PUSH1 0x20 DUP4 ADD DUP6 PUSH2 0x6AA JUMP JUMPDEST PUSH2 0x6E6 PUSH1 0x40 DUP4 ADD DUP5 PUSH2 0x692 JUMP JUMPDEST SWAP5 SWAP4 POP POP POP POP JUMP JUMPDEST PUSH0 DUP2 SWAP1 POP SWAP2 SWAP1 POP JUMP JUMPDEST PUSH2 0x700 DUP2 PUSH2 0x6EE JUMP JUMPDEST DUP3 MSTORE POP POP JUMP JUMPDEST PUSH2 0x70F DUP2 PUSH2 0x5A4 JUMP JUMPDEST DUP3 MSTORE POP POP JUMP JUMPDEST PUSH0 PUSH1 0x40 DUP3 ADD SWAP1 POP PUSH2 0x728 PUSH0 DUP4 ADD DUP6 PUSH2 0x6F7 JUMP JUMPDEST PUSH2 0x735 PUSH1 0x20 DUP4 ADD DUP5 PUSH2 0x706 JUMP JUMPDEST SWAP4 SWAP3 POP POP POP JUMP JUMPDEST PUSH0 PUSH1 0x20 DUP3 ADD SWAP1 POP PUSH2 0x74F PUSH0 DUP4 ADD DUP5 PUSH2 0x706 JUMP JUMPDEST SWAP3 SWAP2 POP POP JUMP JUMPDEST PUSH0 PUSH1 0x20 DUP3 ADD SWAP1 POP PUSH2 0x768 PUSH0 DUP4 ADD DUP5 PUSH2 0x6F7 JUMP JUMPDEST SWAP3 SWAP2 POP POP JUMP JUMPDEST PUSH2 0x777 DUP2 PUSH2 0x621 JUMP JUMPDEST DUP3 MSTORE POP POP JUMP JUMPDEST PUSH0 PUSH1 0x20 DUP3 ADD SWAP1 POP PUSH2 0x790 PUSH0 DUP4 ADD DUP5 PUSH2 0x76E JUMP JUMPDEST SWAP3 SWAP2 POP POP JUMP JUMPDEST PUSH0 DUP3 DUP3 MSTORE PUSH1 0x20 DUP3 ADD SWAP1 POP SWAP3 SWAP2 POP POP JUMP JUMPDEST PUSH32 0x566F74696E672068617320616C726561647920656E6465640000000000000000 PUSH0 DUP3 ADD MSTORE POP JUMP JUMPDEST PUSH0 PUSH2 0x7DA PUSH1 0x18 DUP4 PUSH2 0x796 JUMP JUMPDEST SWAP2 POP PUSH2 0x7E5 DUP3 PUSH2 0x7A6 JUMP JUMPDEST PUSH1 0x20 DUP3 ADD SWAP1 POP SWAP2 SWAP1 POP JUMP JUMPDEST PUSH0 PUSH1 0x20 DUP3 ADD SWAP1 POP DUP2 DUP2 SUB PUSH0 DUP4 ADD MSTORE PUSH2 0x807 DUP2 PUSH2 0x7CE JUMP JUMPDEST SWAP1 POP SWAP2 SWAP1 POP JUMP JUMPDEST PUSH32 0x486173206E6F20726967687420746F20766F7465000000000000000000000000 PUSH0 DUP3 ADD MSTORE POP JUMP JUMPDEST PUSH0 PUSH2 0x842 PUSH1 0x14 DUP4 PUSH2 0x796 JUMP JUMPDEST SWAP2 POP PUSH2 0x84D DUP3 PUSH2 0x80E JUMP JUMPDEST PUSH1 0x20 DUP3 ADD SWAP1 POP SWAP2 SWAP1 POP JUMP JUMPDEST PUSH0 PUSH1 0x20 DUP3 ADD SWAP1 POP DUP2 DUP2 SUB PUSH0 DUP4 ADD MSTORE PUSH2 0x86F DUP2 PUSH2 0x836 JUMP JUMPDEST SWAP1 POP SWAP2 SWAP1 POP JUMP JUMPDEST PUSH32 0x416C726561647920766F7465642E000000000000000000000000000000000000 PUSH0 DUP3 ADD MSTORE POP JUMP JUMPDEST PUSH0 PUSH2 0x8AA PUSH1 0xE DUP4 PUSH2 0x796 JUMP JUMPDEST SWAP2 POP PUSH2 0x8B5 DUP3 PUSH2 0x876 JUMP JUMPDEST PUSH1 0x20 DUP3 ADD SWAP1 POP SWAP2 SWAP1 POP JUMP JUMPDEST PUSH0 PUSH1 0x20 DUP3 ADD SWAP1 POP DUP2 DUP2 SUB PUSH0 DUP4 ADD MSTORE PUSH2 0x8D7 DUP2 PUSH2 0x89E JUMP JUMPDEST SWAP1 POP SWAP2 SWAP1 POP JUMP JUMPDEST PUSH32 0x4E487B7100000000000000000000000000000000000000000000000000000000 PUSH0 MSTORE PUSH1 0x32 PUSH1 0x4 MSTORE PUSH1 0x24 PUSH0 REVERT JUMPDEST PUSH32 0x4E487B7100000000000000000000000000000000000000000000000000000000 PUSH0 MSTORE PUSH1 0x11 PUSH1 0x4 MSTORE PUSH1 0x24 PUSH0 REVERT JUMPDEST PUSH0 PUSH2 0x942 DUP3 PUSH2 0x5A4 JUMP JUMPDEST SWAP2 POP PUSH2 0x94D DUP4 PUSH2 0x5A4 JUMP JUMPDEST SWAP3 POP DUP3 DUP3 ADD SWAP1 POP DUP1 DUP3 GT ISZERO PUSH2 0x965 JUMPI PUSH2 0x964 PUSH2 0x90B JUMP JUMPDEST JUMPDEST SWAP3 SWAP2 POP POP JUMP JUMPDEST PUSH32 0x4F6E6C792061646D696E2063616E20636C6F73652074686520766F7465000000 PUSH0 DUP3 ADD MSTORE POP JUMP JUMPDEST PUSH0 PUSH2 0x99F PUSH1 0x1D DUP4 PUSH2 0x796 JUMP JUMPDEST SWAP2 POP PUSH2 0x9AA DUP3 PUSH2 0x96B JUMP JUMPDEST PUSH1 0x20 DUP3 ADD SWAP1 POP SWAP2 SWAP1 POP JUMP JUMPDEST PUSH0 PUSH1 0x20 DUP3 ADD SWAP1 POP DUP2 DUP2 SUB PUSH0 DUP4 ADD MSTORE PUSH2 0x9CC DUP2 PUSH2 0x993 JUMP JUMPDEST SWAP1 POP SWAP2 SWAP1 POP JUMP INVALID LOG2 PUSH5 0x6970667358 0x22 SLT KECCAK256 PUSH0 DUP13 DUP11 SAR 0x1E 0xBC 0xF7 DUPN 0xFA 0xD7 DUP10 GT NOT SWAP6 0xDD DUP3 CREATE2 PUSH0 MLOAD DUP11 BLOCKHASH EXTCODESIZE DUP7 JUMPF 0x7174 LOG1 DUP15 DUP13 0x2A BLOBBASEFEE PREVRANDAO PUSH5 0x736F6C6343 STOP ADDMOD 0x1E STOP CALLER "
		},
		"gasEstimates": {
			"creation": {
				"codeDepositCost": "513800",
				"executionCost": "infinite",
				"totalCost": "infinite"
			},
			"external": {
				"admin()": "2595",
				"endVotingAsAdmin()": "26668",
				"options(uint256)": "infinite",
				"participants(address)": "infinite",
				"participantsCount()": "2447",
				"topic()": "2425",
				"vote(uint256)": "infinite",
				"votedCount()": "2491",
				"winnerName()": "infinite",
				"winningOption()": "infinite"
			},
			"internal": {
				"configureVoting(bytes32,bytes32[] memory,address[] memory)": "infinite",
				"endVoting()": "24275"
			}
		},
		"methodIdentifiers": {
			"admin()": "f851a440",
			"endVotingAsAdmin()": "5c53b632",
			"options(uint256)": "409e2205",
			"participants(address)": "09e69ede",
			"participantsCount()": "dd60c898",
			"topic()": "bf63a577",
			"vote(uint256)": "0121b93f",
			"votedCount()": "f0232d0a",
			"winnerName()": "e2ba53f0",
			"winningOption()": "9fde4ef8"
		}
	},
	"abi": [
		{
			"inputs": [
				{
					"internalType": "bytes32",
					"name": "topicName",
					"type": "bytes32"
				},
				{
					"internalType": "bytes32[]",
					"name": "optionNames",
					"type": "bytes32[]"
				},
				{
					"internalType": "address[]",
					"name": "participantAddresses",
					"type": "address[]"
				}
			],
			"stateMutability": "nonpayable",
			"type": "constructor"
		},
		{
			"anonymous": false,
			"inputs": [
				{
					"indexed": true,
					"internalType": "address",
					"name": "recipient",
					"type": "address"
				},
				{
					"indexed": false,
					"internalType": "bytes32",
					"name": "topic",
					"type": "bytes32"
				},
				{
					"indexed": false,
					"internalType": "bytes32",
					"name": "winnerName",
					"type": "bytes32"
				}
			],
			"name": "VotingHasEnded",
			"type": "event"
		},
		{
			"anonymous": false,
			"inputs": [
				{
					"indexed": true,
					"internalType": "address",
					"name": "recipient",
					"type": "address"
				}
			],
			"name": "VotingHasStarted",
			"type": "event"
		},
		{
			"inputs": [],
			"name": "admin",
			"outputs": [
				{
					"internalType": "address",
					"name": "",
					"type": "address"
				}
			],
			"stateMutability": "view",
			"type": "function"
		},
		{
			"inputs": [],
			"name": "endVotingAsAdmin",
			"outputs": [],
			"stateMutability": "nonpayable",
			"type": "function"
		},
		{
			"inputs": [
				{
					"internalType": "uint256",
					"name": "",
					"type": "uint256"
				}
			],
			"name": "options",
			"outputs": [
				{
					"internalType": "bytes32",
					"name": "name",
					"type": "bytes32"
				},
				{
					"internalType": "uint256",
					"name": "voteCount",
					"type": "uint256"
				}
			],
			"stateMutability": "view",
			"type": "function"
		},
		{
			"inputs": [
				{
					"internalType": "address",
					"name": "",
					"type": "address"
				}
			],
			"name": "participants",
			"outputs": [
				{
					"internalType": "bool",
					"name": "voted",
					"type": "bool"
				},
				{
					"internalType": "int256",
					"name": "vote",
					"type": "int256"
				},
				{
					"internalType": "bool",
					"name": "exists",
					"type": "bool"
				}
			],
			"stateMutability": "view",
			"type": "function"
		},
		{
			"inputs": [],
			"name": "participantsCount",
			"outputs": [
				{
					"internalType": "uint256",
					"name": "",
					"type": "uint256"
				}
			],
			"stateMutability": "view",
			"type": "function"
		},
		{
			"inputs": [],
			"name": "topic",
			"outputs": [
				{
					"internalType": "bytes32",
					"name": "",
					"type": "bytes32"
				}
			],
			"stateMutability": "view",
			"type": "function"
		},
		{
			"inputs": [
				{
					"internalType": "uint256",
					"name": "option",
					"type": "uint256"
				}
			],
			"name": "vote",
			"outputs": [],
			"stateMutability": "nonpayable",
			"type": "function"
		},
		{
			"inputs": [],
			"name": "votedCount",
			"outputs": [
				{
					"internalType": "uint256",
					"name": "",
					"type": "uint256"
				}
			],
			"stateMutability": "view",
			"type": "function"
		},
		{
			"inputs": [],
			"name": "winnerName",
			"outputs": [
				{
					"internalType": "bytes32",
					"name": "winnerName_",
					"type": "bytes32"
				}
			],
			"stateMutability": "view",
			"type": "function"
		},
		{
			"inputs": [],
			"name": "winningOption",
			"outputs": [
				{
					"internalType": "uint256",
					"name": "winningOption_",
					"type": "uint256"
				}
			],
			"stateMutability": "view",
			"type": "function"
		}
	]
}